{
  "_format": "hh-sol-artifact-1",
  "contractName": "ExpenseGroup",
  "sourceName": "contracts/ExpenseGroup.sol",
  "abi": [
    {
      "inputs": [
        {
          "internalType": "string",
          "name": "_name",
          "type": "string"
        },
        {
          "internalType": "address[]",
          "name": "_members",
          "type": "address[]"
        },
        {
          "internalType": "address",
          "name": "_creator",
          "type": "address"
        }
      ],
      "stateMutability": "nonpayable",
      "type": "constructor"
    },
    {
      "anonymous": false,
      "inputs": [
        {
          "indexed": true,
          "internalType": "address",
          "name": "from",
          "type": "address"
        },
        {
          "indexed": true,
          "internalType": "address",
          "name": "to",
          "type": "address"
        },
        {
          "indexed": false,
          "internalType": "uint256",
          "name": "amount",
          "type": "uint256"
        }
      ],
      "name": "DebtSettled",
      "type": "event"
    },
    {
      "anonymous": false,
      "inputs": [
        {
          "indexed": true,
          "internalType": "uint256",
          "name": "id",
          "type": "uint256"
        },
        {
          "indexed": true,
          "internalType": "address",
          "name": "paidBy",
          "type": "address"
        },
        {
          "indexed": false,
          "internalType": "uint256",
          "name": "totalAmount",
          "type": "uint256"
        },
        {
          "indexed": false,
          "internalType": "string",
          "name": "description",
          "type": "string"
        }
      ],
      "name": "ExpenseAdded",
      "type": "event"
    },
    {
      "inputs": [
        {
          "internalType": "uint256",
          "name": "_amount",
          "type": "uint256"
        },
        {
          "internalType": "string",
          "name": "_description",
          "type": "string"
        }
      ],
      "name": "addExpense",
      "outputs": [],
      "stateMutability": "nonpayable",
      "type": "function"
    },
    {
      "inputs": [
        {
          "internalType": "address",
          "name": "",
          "type": "address"
        }
      ],
      "name": "balances",
      "outputs": [
        {
          "internalType": "int256",
          "name": "",
          "type": "int256"
        }
      ],
      "stateMutability": "view",
      "type": "function"
    },
    {
      "inputs": [],
      "name": "creator",
      "outputs": [
        {
          "internalType": "address",
          "name": "",
          "type": "address"
        }
      ],
      "stateMutability": "view",
      "type": "function"
    },
    {
      "inputs": [],
      "name": "expenseCount",
      "outputs": [
        {
          "internalType": "uint256",
          "name": "",
          "type": "uint256"
        }
      ],
      "stateMutability": "view",
      "type": "function"
    },
    {
      "inputs": [
        {
          "internalType": "uint256",
          "name": "",
          "type": "uint256"
        }
      ],
      "name": "expenses",
      "outputs": [
        {
          "internalType": "uint256",
          "name": "id",
          "type": "uint256"
        },
        {
          "internalType": "address",
          "name": "paidBy",
          "type": "address"
        },
        {
          "internalType": "uint256",
          "name": "totalAmount",
          "type": "uint256"
        },
        {
          "internalType": "string",
          "name": "description",
          "type": "string"
        },
        {
          "internalType": "uint256",
          "name": "timestamp",
          "type": "uint256"
        }
      ],
      "stateMutability": "view",
      "type": "function"
    },
    {
      "inputs": [],
      "name": "getAllExpenses",
      "outputs": [
        {
          "components": [
            {
              "internalType": "uint256",
              "name": "id",
              "type": "uint256"
            },
            {
              "internalType": "address",
              "name": "paidBy",
              "type": "address"
            },
            {
              "internalType": "uint256",
              "name": "totalAmount",
              "type": "uint256"
            },
            {
              "internalType": "string",
              "name": "description",
              "type": "string"
            },
            {
              "internalType": "uint256",
              "name": "timestamp",
              "type": "uint256"
            }
          ],
          "internalType": "struct ExpenseGroup.Expense[]",
          "name": "",
          "type": "tuple[]"
        }
      ],
      "stateMutability": "view",
      "type": "function"
    },
    {
      "inputs": [],
      "name": "getBalances",
      "outputs": [
        {
          "internalType": "address[]",
          "name": "",
          "type": "address[]"
        },
        {
          "internalType": "int256[]",
          "name": "",
          "type": "int256[]"
        }
      ],
      "stateMutability": "view",
      "type": "function"
    },
    {
      "inputs": [],
      "name": "getMembers",
      "outputs": [
        {
          "internalType": "address[]",
          "name": "",
          "type": "address[]"
        }
      ],
      "stateMutability": "view",
      "type": "function"
    },
    {
      "inputs": [],
      "name": "groupName",
      "outputs": [
        {
          "internalType": "string",
          "name": "",
          "type": "string"
        }
      ],
      "stateMutability": "view",
      "type": "function"
    },
    {
      "inputs": [
        {
          "internalType": "address",
          "name": "",
          "type": "address"
        }
      ],
      "name": "isMember",
      "outputs": [
        {
          "internalType": "bool",
          "name": "",
          "type": "bool"
        }
      ],
      "stateMutability": "view",
      "type": "function"
    },
    {
      "inputs": [
        {
          "internalType": "uint256",
          "name": "",
          "type": "uint256"
        }
      ],
      "name": "members",
      "outputs": [
        {
          "internalType": "address",
          "name": "",
          "type": "address"
        }
      ],
      "stateMutability": "view",
      "type": "function"
    },
    {
      "inputs": [
        {
          "internalType": "address",
          "name": "_creditor",
          "type": "address"
        }
      ],
      "name": "settleDebt",
      "outputs": [],
      "stateMutability": "payable",
      "type": "function"
    }
  ],
  "bytecode": "0x60806040523480156200001157600080fd5b50604051620016c8380380620016c8833981016040819052620000349162000359565b600080546001600160a01b0319166001600160a01b03831617905560016200005d8482620004d6565b506002805460018082019092557f405787fa12a823e0f2b7631cc41b3ba8828b3321ca811111fa75cd3aa3bb5ace0180546001600160a01b0319166001600160a01b0384169081179091556000908152600360205260408120805460ff19169092179091555b8251811015620002585760006001600160a01b0316838281518110620000ed57620000ed620005a2565b60200260200101516001600160a01b031603620001505760405162461bcd60e51b815260206004820152601660248201527f496e76616c6964206d656d626572206164647265737300000000000000000000604482015260640160405180910390fd5b60036000848381518110620001695762000169620005a2565b6020908102919091018101516001600160a01b031682528101919091526040016000205460ff1662000243576002838281518110620001ac57620001ac620005a2565b60209081029190910181015182546001808201855560009485529284200180546001600160a01b0319166001600160a01b0390921691909117905584519091600391869085908110620002035762000203620005a2565b60200260200101516001600160a01b03166001600160a01b0316815260200190815260200160002060006101000a81548160ff0219169083151502179055505b806200024f81620005b8565b915050620000c3565b50505050620005e0565b634e487b7160e01b600052604160045260246000fd5b604051601f8201601f191681016001600160401b0381118282101715620002a357620002a362000262565b604052919050565b80516001600160a01b0381168114620002c357600080fd5b919050565b600082601f830112620002da57600080fd5b815160206001600160401b03821115620002f857620002f862000262565b8160051b6200030982820162000278565b92835284810182019282810190878511156200032457600080fd5b83870192505b848310156200034e576200033e83620002ab565b825291830191908301906200032a565b979650505050505050565b6000806000606084860312156200036f57600080fd5b83516001600160401b03808211156200038757600080fd5b818601915086601f8301126200039c57600080fd5b815181811115620003b157620003b162000262565b6020620003c7601f8301601f1916820162000278565b8281528982848701011115620003dc57600080fd5b60005b83811015620003fc578581018301518282018401528201620003df565b5060009281018201929092528701519095509150808211156200041e57600080fd5b506200042d86828701620002c8565b9250506200043e60408501620002ab565b90509250925092565b600181811c908216806200045c57607f821691505b6020821081036200047d57634e487b7160e01b600052602260045260246000fd5b50919050565b601f821115620004d157600081815260208120601f850160051c81016020861015620004ac5750805b601f850160051c820191505b81811015620004cd57828155600101620004b8565b5050505b505050565b81516001600160401b03811115620004f257620004f262000262565b6200050a8162000503845462000447565b8462000483565b602080601f831160018114620005425760008415620005295750858301515b600019600386901b1c1916600185901b178555620004cd565b600085815260208120601f198616915b82811015620005735788860151825594840194600190910190840162000552565b5085821015620005925787850151600019600388901b60f8161c191681555b5050505050600190811b01905550565b634e487b7160e01b600052603260045260246000fd5b600060018201620005d957634e487b7160e01b600052601160045260246000fd5b5060010190565b6110d880620005f06000396000f3fe6080604052600436106100a65760003560e01c8063783cec8011610064578063783cec80146101a25780639eab5253146101c4578063a230c524146101e6578063adf298c814610226578063af4afe0a14610239578063dd53ff6c1461026a57600080fd5b8062113e08146100ab57806302d05d3f146100d757806327e235e31461010f57806341611b701461014a57806352e7df5d1461016c5780635daf08ca14610182575b600080fd5b3480156100b757600080fd5b506100c061028c565b6040516100ce929190610bd4565b60405180910390f35b3480156100e357600080fd5b506000546100f7906001600160a01b031681565b6040516001600160a01b0390911681526020016100ce565b34801561011b57600080fd5b5061013c61012a366004610c2b565b60046020526000908152604090205481565b6040519081526020016100ce565b34801561015657600080fd5b5061016a610165366004610c5b565b6103be565b005b34801561017857600080fd5b5061013c60065481565b34801561018e57600080fd5b506100f761019d366004610cd7565b61064a565b3480156101ae57600080fd5b506101b7610674565b6040516100ce9190610d36565b3480156101d057600080fd5b506101d9610702565b6040516100ce9190610d49565b3480156101f257600080fd5b50610216610201366004610c2b565b60036020526000908152604090205460ff1681565b60405190151581526020016100ce565b61016a610234366004610c2b565b610764565b34801561024557600080fd5b50610259610254366004610cd7565b610992565b6040516100ce959493929190610d5c565b34801561027657600080fd5b5061027f610a6a565b6040516100ce9190610d9b565b606080600060028054905067ffffffffffffffff8111156102af576102af610e3e565b6040519080825280602002602001820160405280156102d8578160200160208202803683370190505b50905060005b6002548110156103555760046000600283815481106102ff576102ff610e54565b60009182526020808320909101546001600160a01b03168352820192909252604001902054825183908390811061033857610338610e54565b60209081029190910101528061034d81610e80565b9150506102de565b50600281818054806020026020016040519081016040528092919081815260200182805480156103ae57602002820191906000526020600020905b81546001600160a01b03168152600190910190602001808311610390575b5050505050915092509250509091565b3360009081526003602052604090205460ff166104115760405162461bcd60e51b815260206004820152600c60248201526b2737ba10309036b2b6b132b960a11b60448201526064015b60405180910390fd5b600083116104615760405162461bcd60e51b815260206004820152601d60248201527f416d6f756e74206d7573742062652067726561746572207468616e20300000006044820152606401610408565b60025460006104708286610e99565b33600090815260046020526040812080549293508792909190610494908490610ebb565b90915550600090505b82811015610509578160046000600284815481106104bd576104bd610e54565b60009182526020808320909101546001600160a01b03168352820192909252604001812080549091906104f1908490610ee3565b9091555081905061050181610e80565b91505061049d565b5060056040518060a001604052806006548152602001336001600160a01b0316815260200187815260200186868080601f0160208091040260200160405190810160405280939291908181526020018383808284376000920182905250938552505042602093840152508354600180820186559482529082902083516005909202019081559082015192810180546001600160a01b0319166001600160a01b039094169390931790925560408101516002830155606081015190919060038201906105d49082610f93565b5060809190910151600490910155600680549060006105f283610e80565b9091555050600654339061060890600190611053565b7fdb0debf4b1618503c6e2e44996a5479eee196e1a5959982dc7e814d15674817a87878760405161063b9392919061106c565b60405180910390a35050505050565b6002818154811061065a57600080fd5b6000918252602090912001546001600160a01b0316905081565b6001805461068190610f0a565b80601f01602080910402602001604051908101604052809291908181526020018280546106ad90610f0a565b80156106fa5780601f106106cf576101008083540402835291602001916106fa565b820191906000526020600020905b8154815290600101906020018083116106dd57829003601f168201915b505050505081565b6060600280548060200260200160405190810160405280929190818152602001828054801561075a57602002820191906000526020600020905b81546001600160a01b0316815260019091019060200180831161073c575b5050505050905090565b3360009081526003602052604090205460ff166107b25760405162461bcd60e51b815260206004820152600c60248201526b2737ba10309036b2b6b132b960a11b6044820152606401610408565b6001600160a01b03811660009081526003602052604090205460ff1661081a5760405162461bcd60e51b815260206004820152601860248201527f4372656469746f72206973206e6f742061206d656d62657200000000000000006044820152606401610408565b6000341161086a5760405162461bcd60e51b815260206004820152601760248201527f4d7573742073656e642045544820746f20736574746c650000000000000000006044820152606401610408565b3360009081526004602052604081208054349290610889908490610ebb565b90915550506001600160a01b038116600090815260046020526040812080543492906108b6908490610ee3565b90915550506040516000906001600160a01b0383169034908381818185875af1925050503d8060008114610906576040519150601f19603f3d011682016040523d82523d6000602084013e61090b565b606091505b505090508061094e5760405162461bcd60e51b815260206004820152600f60248201526e151c985b9cd9995c8819985a5b1959608a1b6044820152606401610408565b6040513481526001600160a01b0383169033907f3ca73b48b2294e09025a6586f5b333bb2593733b96e3b852c4777f75bea47e6c9060200160405180910390a35050565b600581815481106109a257600080fd5b600091825260209091206005909102018054600182015460028301546003840180549395506001600160a01b039092169390929091906109e190610f0a565b80601f0160208091040260200160405190810160405280929190818152602001828054610a0d90610f0a565b8015610a5a5780601f10610a2f57610100808354040283529160200191610a5a565b820191906000526020600020905b815481529060010190602001808311610a3d57829003601f168201915b5050505050908060040154905085565b60606005805480602002602001604051908101604052809291908181526020016000905b82821015610b875760008481526020908190206040805160a081018252600586029092018054835260018101546001600160a01b031693830193909352600283015490820152600382018054919291606084019190610aec90610f0a565b80601f0160208091040260200160405190810160405280929190818152602001828054610b1890610f0a565b8015610b655780601f10610b3a57610100808354040283529160200191610b65565b820191906000526020600020905b815481529060010190602001808311610b4857829003601f168201915b5050505050815260200160048201548152505081526020019060010190610a8e565b50505050905090565b600081518084526020808501945080840160005b83811015610bc95781516001600160a01b031687529582019590820190600101610ba4565b509495945050505050565b604081526000610be76040830185610b90565b82810360208481019190915284518083528582019282019060005b81811015610c1e57845183529383019391830191600101610c02565b5090979650505050505050565b600060208284031215610c3d57600080fd5b81356001600160a01b0381168114610c5457600080fd5b9392505050565b600080600060408486031215610c7057600080fd5b83359250602084013567ffffffffffffffff80821115610c8f57600080fd5b818601915086601f830112610ca357600080fd5b813581811115610cb257600080fd5b876020828501011115610cc457600080fd5b6020830194508093505050509250925092565b600060208284031215610ce957600080fd5b5035919050565b6000815180845260005b81811015610d1657602081850181015186830182015201610cfa565b506000602082860101526020601f19601f83011685010191505092915050565b602081526000610c546020830184610cf0565b602081526000610c546020830184610b90565b85815260018060a01b038516602082015283604082015260a060608201526000610d8960a0830185610cf0565b90508260808301529695505050505050565b60006020808301818452808551808352604092508286019150828160051b87010184880160005b83811015610e3057888303603f19018552815180518452878101516001600160a01b031688850152868101518785015260608082015160a08287018190529190610e0e83880182610cf0565b6080948501519790940196909652505094870194925090860190600101610dc2565b509098975050505050505050565b634e487b7160e01b600052604160045260246000fd5b634e487b7160e01b600052603260045260246000fd5b634e487b7160e01b600052601160045260246000fd5b600060018201610e9257610e92610e6a565b5060010190565b600082610eb657634e487b7160e01b600052601260045260246000fd5b500490565b8082018281126000831280158216821582161715610edb57610edb610e6a565b505092915050565b8181036000831280158383131683831282161715610f0357610f03610e6a565b5092915050565b600181811c90821680610f1e57607f821691505b602082108103610f3e57634e487b7160e01b600052602260045260246000fd5b50919050565b601f821115610f8e57600081815260208120601f850160051c81016020861015610f6b5750805b601f850160051c820191505b81811015610f8a57828155600101610f77565b5050505b505050565b815167ffffffffffffffff811115610fad57610fad610e3e565b610fc181610fbb8454610f0a565b84610f44565b602080601f831160018114610ff65760008415610fde5750858301515b600019600386901b1c1916600185901b178555610f8a565b600085815260208120601f198616915b8281101561102557888601518255948401946001909101908401611006565b50858210156110435787850151600019600388901b60f8161c191681555b5050505050600190811b01905550565b8181038181111561106657611066610e6a565b92915050565b83815260406020820152816040820152818360608301376000818301606090810191909152601f909201601f191601019291505056fea264697066735822122068cc1de1492acb3d9f5b56caeeedf40820dc6a09a01d52a8522035f5055af9be64736f6c63430008140033",
  "linkReferences": {},
  "deployedLinkReferences": {}
}